S02B0000443A2F4C69627261726965732F446F63756D656E74732F55206F6620546F726F6E746F2F436F757253
S113002004EEFFDE150040DF150100DE7A303100FA
S1130030150200DE150380D81504C0D8150500D9B3
S1130040150640D9150780D91508C0D9150900DA55
S1130050150A40DA150B80DA150CC0DA150D00DB31
S1130060150E40DB150F80DB1510C0DB1511C0DF4A
S11300703A3111004C0040421E520048BAD112409D
S11300804C00404A1E070048FAD112404C00404A36
S11300901E4D00487AD012404C00404A1EDA0048F7
S11300A0066B01008416C001264500383400840222
S11300B014108C523702005237034052350200525A
S11300C035034052C4FFFF393A8817400E020058E6
S11300D03A3016584400C05A17E789020E01C0523C
S11300E015E7C9023A8817480E0200583A301658E4
S11300F04400C05A17EA89020E01C05215EAC90227
S113010017ED8902440080523400C0021400C15A21
S11301100E02C05215ED8902060D000015ED09000E
S113012017E78902B419C002D499D95A3A28D5528A
S113013015E8890217EA8902B419C002D499D95A78
S11301403A28D55215EB890215E7090015EA09008A
S113015017E3C9024400C05A440080020E02805AC8
S113016015E3C90206D03F0015E3090017E4C903EB
S1130170B49D800294D889523A289142840F800217
S11301803AC8115204E3847A15000052B49D8002E7
S113019094D889523A28934A442C80023AC853523C
S11301A00423867A150040520401C07B04400102F6
S11301B01601007A3A881F0015E4C90306BA3F0005
S11301C00623010006220100340004021440004208
S11301D03700004217E649023400040214080042C2
S11301E08401C0023500C042264600481E00004873
S11301F03A8815003400040214080042C40FC002F7
S11302003500C04215E689023400C4011414CC3907
S11302100400C0002500C0385413C0006500C03875
S11302205415C0006500C038D414C0006500C0383F
S11302305412C0006500C038D410C0006500C03836
S11302401408C0006500C0381414C0006500C0382C
S11302501413C0006500C0385410C0006500C038D5
S11302605416C0006500C0385411C0006500C03881
S11302709414C0006500C0380430C0002500C038A4
S11302805413C0006500C038D413C0006500C038E2
S11302901411C0006500C0385411C0006500C03896
S11302A0940EC0006500C038D413C0006500C03887
S11302B0D414C0006500C038D410C0006500C03834
S11302C05412C0006500C0381413C0006500C03863
S11302D0D413C0006500C038D414C0006500C03811
S11302E0D410C0006500C038D413C0006500C03805
S11302F01414C0006500C0385411C0006500C03833
S113030006D300004400800215E689023400C401CB
S11303101414CC390400C0002500C0385413C000A4
S11303206500C0385415C0006500C038D414C0003E
S11303306500C0385412C0006500C038D410C00035
S11303406500C0381408C0006500C0381414C0002B
S11303506500C0381413C0006500C0385410C000D4
S11303606500C0385416C0006500C0385411C00080
S11303706500C0389414C0006500C0380430C00063
S11303802500C0385413C0006500C038D413C00021
S11303906500C0381411C0006500C0385411C00095
S11303A06500C038940EC0006500C0389415C000C4
S11303B06500C0385415C0006500C0381408C0007A
S11303C06500C0385413C0006500C0385411C00023
S11303D06500C0381415C0006500C0385411C00051
S11303E06500C0389414C0006500C0381408C0000B
S11303F06500C0381408C0006500C0381408C00087
S11304006500C0380692000017E6490244008002E5
S113041034000402140800428401C0023500C042C2
S1130420264900481E0000483A881500340004029A
S113043014080042C40FC0023500C0423400C40195
S11304401414CC390400C0002500C0385413C00073
S11304506500C0385415C0006500C038D414C0000D
S11304606500C0385412C0006500C038D410C00004
S11304706500C0381408C0006500C0381414C000FA
S11304806500C0381413C0006500C0385410C000A3
S11304906500C0385416C0006500C0385411C0004F
S11304A06500C0389414C0006500C0380430C00032
S11304B02500C0385413C0006500C038D413C000F0
S11304C06500C0381411C0006500C0385411C00064
S11304D06500C038940EC0006500C038D413C00055
S11304E06500C038D414C0006500C038D410C00002
S11304F06500C0385412C0006500C0381413C00031
S11305006500C038D413C0006500C038D414C000DE
S11305106500C038D410C0006500C038D413C000D2
S11305206500C0381414C0006500C0385411C00000
S11305306500C03815E68902340004021414004230
S1130540150300400642000015E689023400C40188
S11305501414CC390400C0002500C0385413C00062
S11305606500C0385415C0006500C038D414C000FC
S11305706500C0385412C0006500C038D410C000F3
S11305806500C0381408C0006500C0381414C000E9
S11305906500C0381413C0006500C0385410C00092
S11305A06500C0385416C0006500C0385411C0003E
S11305B06500C0389414C0006500C0380430C00021
S11305C02500C0385413C0006500C038D413C000DF
S11305D06500C0381411C0006500C0385411C00053
S11305E06500C038940EC0006500C0389415C00082
S11305F06500C0385415C0006500C0381408C00038
S11306006500C0385413C0006500C0385411C000E0
S11306106500C0381415C0006500C0385411C0000E
S11306206500C0389414C0006500C0381408C000C8
S11306306500C0381408C0006500C0381408C00044
S11306406500C0383400040214140042150300404D
S1130650170040DF170200DE7A7001C0170100DEC8
S1130660170380D81704C0D8170500D9170640D936
S1130670170780D91708C0D9170900DA170A40DA12
S1130680170B80DA170CC0DA170D00DB170E40DBEE
S1130690170F80DB1710C0DB1711C0DF0412C0DE98
S10B06A004FF7FEF3A0880EF2C
S113100034000202340002421400C0022D00C04227
S1131010840000427AD01240CC7F404A04508002BF
S113102016FABF4ABAD2104044000042CC3F4042B4
S1131030BA921040043C800216F4BF4A3A2800F8E1
S1131040000001003400040214080042C40FC0026E
S11310503500C0423400C4011414CC390400C0006B
S11310602500C0385413C0006500C0385415C000B2
S11310706500C038D414C0006500C0385412C000E4
S11310806500C038D410C0006500C0381408C00022
S11310906500C0381414C0006500C0381413C000C3
S11310A06500C0385410C0006500C0385416C00034
S11310B06500C0385411C0006500C0389414C000E5
S11310C06500C0380430C0002500C0385413C00087
S11310D06500C038D413C0006500C0381411C000C6
S11310E06500C0385411C0006500C038940EC000BB
S11310F06500C038D413C0006500C038D414C000E3
S11311006500C038D410C0006500C0385412C00057
S11311106500C0381413C0006500C038D413C00083
S11311206500C038D414C0006500C038D410C000B5
S11311306500C038D413C0006500C0381414C00062
S11311406500C0385411C0006500C03804030002B3
S11311503400440214104C4A3500004A4400000292
S11311603500004A3400040214000842140240020C
S113117035014042350000405400400235024042EF
S113118014004002350340425401400235014042FC
S1131190340004021440004244004002350140423D
S11311A03400040214140042840340023502404215
S11311B03A881F0004E3047A840F40021500404279
S11311C00423067A442C4002150040420401C07BEB
S11311D0044001021EF7FF4384300002FA7001400C
S11311E0440000023A70014017E609022627004035
S11311F017E8090215E9090217EB090215EC0902BF
S11312003A8813003A881100043C80020E1E804A7A
S1131210045080020E1A80420809804A5016C04ABF
S11312203A70D45217E9C9023A80D6423A70DA5277
S1131230C825804A1033C04A3A70D45217ECC90208
S11312403A80D6423A70D4523AB0946A3400C0021A
S11312501400C05A2601005044EDD3027A90144081
S1131260BA9218483A8815533400020334000263D2
S11312703A8815532D00C0524400004206E43F0052
S11312804400404A06DF3F00063F00003A88110050
S1131290044041020E06404217E3444215634742AC
S11312A01723464215A348420401004206F83F00B2
S11312B017E4490215E549023A88130017E5C90302
S11312C0BA9014483A88D5530440C1021601C0525A
S11312D004C0BE520463C7521700C05ABA921658CB
S11312E07A9018483A88175B34000203340002638A
S11312F03A88115B04A3C8521700C05ABA92165810
S11313007A9018483A88175B340002033400026369
S11313103A88155B3A881B007A9016483A88575BDE
S113132034000203340002633A88175BBAD20C58C3
S1131330CC3F80313A000B5A3A00895A3AB04A21DC
S1131340A00FC030602C00313AB006191E030028EB
S11313501E040018140000030603000054ED1303D8
S11313600601000014082A032D00005B0400416BF1
S1131370F400C002145BEF5A16E7FF6A4400404AC7
S10F13800450800216CDBF4A06973F00BF
S113138C000000000000000000000000000000004D
S113139C000000000000000000000000000000003D
S11313AC000000000000000000000000000000002D
S11313BC000000000000000000000000000000001D
S9031040AC
