S02B0000443A2F4C69627261726965732F446F63756D656E74732F55206F6620546F726F6E746F2F436F757253
S113002004EEFFDE150040DF150100DE7A303100FA
S1130030150200DE150380D81504C0D8150500D9B3
S1130040150640D9150780D91508C0D9150900DA55
S1130050150A40DA150B80DA150CC0DA150D00DB31
S1130060150E40DB150F80DB1510C0DB1511C0DF4A
S11300703A3111004C0040421E4F0048BAD11240A0
S11300804C00404A1E040048FAD112404C00404A39
S11300901EBD004806CC00008416C0012645003869
S11300A03400840214108C52370200523703405239
S11300B03502005235034052C4FFFF393A881740D5
S11300C00E0200583A3016584400C05A173D8902AF
S11300D00E01C052153DC9023A8817480E02005855
S11300E03A3016584400C05A174089020E01C052D3
S11300F01540C90217438902440080523400C002EB
S11301001400C15A0E02C05215438902060D0000A4
S113011015430900173D8902B419C002D499D95A6C
S11301203A28D552153E890217408902B419C002F3
S1130130D499D95A3A28D55215418902153D090056
S1130140154009001739C9024400C05A440080020E
S11301500E02805A1539C90206D03F00153909002C
S1130160173AC903B49D800294D889523A2891421F
S1130170840F80023AC811520439847A150000525F
S1130180B49D800294D889523A28934A442C800220
S11301903AC853520479857A150040520401C07B51
S11301A0044001021601007A3A881F00153AC90377
S11301B006BA3F0006840000173C0902262C0040C2
S11301C0173E0902153F09021741090215420902A7
S11301D034000402140008423500004044000002C8
S11301E03A7001403A8813003A881100043C8002B6
S11301F00E1E804A045080020E1A80420809804A6A
S11302005016C04A3A70D452173FC9023A40165A9F
S11302103A70DA52C825804A1033C04A3A70D45230
S11302201742C9023A40165A3A70D4523AB0946A04
S11302303400C002D4FFFF5A260100500400C0025B
S11302407A901440BA9218483A881553340002033D
S1130250340002633A8815532D00C0524400004212
S113026006E43F004400404A06DF3F000641000028
S11302703A881100044041020E06404217394442B4
S113028015B946421779454215F94742040100421F
S113029006F83F00173A4902153B490234000402AC
S11302A01400084235000040440000023A70014046
S11302B03A881300173BC903BA9014483A88D553B7
S11302C00440C1021601C05204C0BE5204B9C65251
S11302D01700C05ABA9216587A9018483A88175B91
S11302E034000203340002633A88115B04F9C752F4
S11302F01700C05ABA9216587A9018483A88175B71
S113030034000203340002633A88155B3A881B0008
S11303107A9016483A88575B34000203340002632B
S11303203A88175BBAD20C58CC3F80313A400A5A0B
S1130330880FC0313AF0CA293A40885A482CC03153
S11303403AF0C8213AB04A21D4FF3F0326014001C4
S1130350140000032D00005B0400416BF400C00294
S1130360145BEF5A16EAFF6A4400404A04508002C4
S113037016D0BF4A3400040214000842540140025B
S113038035014042061000003400040214400042CB
S113039037000042173C4902440080023400040242
S11303A0140800428401C0023500C04226050048FA
S11303B03A8815003400040214080042C40FC00235
S11303C03500C042153C8902170040DF170200DEE9
S11303D07A7001C0170100DE170380D81704C0D853
S11303E0170500D9170640D9170780D91708C0D9AF
S11303F0170900DA170A40DA170B80DA170CC0DA8B
S1130400170D00DB170E40DB170F80DB1710C0DB66
S11304101711C0DF0412C0DE04FF7FEF3A0880EF3B
S11310003400020234000242D4FFFF022D00C04229
S1131010840000427AD01240CC7F404A04508002BF
S113102016FABF4ABAD2104044000042CC3F4042B4
S1131030BA921040043C800216F4BF4A3A2800F8E1
S1131040000001003400040214080042C40FC0026E
S11310503500C042040300023400440214104C4A18
S11310603500004A440000023500004A34000402FE
S11310701400084214024002350140423500004089
S113108054004002350240421400400235034042FD
S1131090540140023501404234000402144000422D
S11310A044004002350140423A881F000439047A62
S11310B0840F4002150040420479057A442C400212
S11310C0150040420401C07B044001021EF7FF43A7
S11310D044300002FA700140440000023A700140BA
S10710E006FF3F00C4
S11310E400000000000000000000000000000000F8
S11310F400000000000000000000000000000000E8
S113110400000000000000000000000000000000D7
S113111400000000000000000000000000000000C7
S11324E400000000000000000000000001000000E3
S11324F400000000000000000000000000000000D4
S10F2504000000000000000000000000C7
S9031040AC
